:100000000A128A1110280800FE00030E831203133F
:10001000A1000408A2000A08A3000A128A15FC2EF7
:100020000A128A1113280A128A1596250A128A11B1
:10003000C7000A128A1597250A128A11C8000A12E7
:100040008A1598250A128A11C9000A128A1599255B
:100050000A128A11CA000A128A159A250A128A11EE
:10006000CB0083133430840047300A128A15A3254D
:10007000FD0183010A128A115D2C83120313A8006B
:10008000D7282508A600240A47280310A60DFF3EFE
:10009000031D45280130A700240A50280310A70D8E
:1000A000FF3E031D4E282708FF3A8316031305055C
:1000B0008312031326048316031385000800250802
:1000C000A600240A65280310A60DFF3E031D632821
:1000D0000130A700240A6E280310A70DFF3E031D60
:1000E0006C282708FF3A83160313060583120313AF
:1000F000260483160313860008002508A600240A98
:1001000083280310A60DFF3E031D81280130A700A0
:10011000240A8C280310A70DFF3E031D8A282708F8
:10012000FF3A83160313070583120313260483166D
:100130000313870008002508A600240AA12803103D
:10014000A60DFF3E031D9F280130A700240AAA2800
:100150000310A70DFF3E031DA8282708FF3A8316AA
:100160000313080583120313260483160313880060
:1001700008002508A600240ABF280310A60DFF3E8C
:10018000031DBD280130A700240AC8280310A70DAD
:10019000FF3E031DC6282708FF3A831603130905EF
:1001A000831203132604831603138900080028080A
:1001B000003A03194128013A03195F28033A031949
:1001C0007D28013A03199B28073A0319B928E82822
:1001D00008005E298C300A128A159B250A128A11A2
:1001E00000300A128A15AB250A128A11033A031D40
:1001F0006B29013083120313B0003008C9076B2943
:100200005A300A128A159B250A128A1101300A12E5
:100210008A15AB250A128A11033A03192C293030AA
:1002200083120313AA007530AB0002300A128A153C
:10023000FF250A128A11831203132508AD00240832
:10024000AC000A128A11AA270A128A118312031318
:100250002A082B04031DF028013083120313C9025E
:100260006B290A300A128A159B250A128A1101305D
:100270000A128A15AB250A128A11033A03192C298E
:10028000303083120313AA007530AB0002300A121B
:100290008A15FF250A128A11831203132508AD005F
:1002A0002408AC000A128A11AA270A128A118312A2
:1002B00003132A082B0403192C296B298312031317
:1002C0004908003A0319EA28013A03190029033AB8
:1002D000031931296B2902300A128A15AB250A123B
:1002E0008A11023A031D792983120313BD01BD0A45
:1002F000080083120313BD01080083120313A80032
:10030000F9292508A600240A87290310A60DFF3E17
:10031000031D85290130A700240A90290310A70D89
:10032000FF3E031D8E292708FF3A05052604850098
:1003300008002508A600240A9F290310A60DFF3EE9
:10034000031D9D290130A700240AA8290310A70D29
:10035000FF3E031DA6292708FF3A0605260486004E
:1003600008002508A600240AB7290310A60DFF3EA1
:10037000031DB5290130A700240AC0290310A70DC9
:10038000FF3E031DBE292708FF3A07052604870004
:1003900008002508A600240ACF290310A60DFF3E59
:1003A000031DCD290130A700240AD8290310A70D69
:1003B000FF3E031DD6292708FF3A080526048800BA
:1003C00008002508A600240AE7290310A60DFF3E11
:1003D000031DE5290130A700240AF0290310A70D09
:1003E000FF3E031DEE292708FF3A09052604890070
:1003F00008002808003A03198129013A03199929AC
:10040000033A0319B129013A0319C929073A031913
:10041000E1290A2A08000A128A158D250A128A1172
:1004200083120313AC002C08AD000A128A1589252B
:100430000A128A1183120313AC002C08AE002E0896
:10044000AC002C08A90000300A128A1512260A12E4
:100450008A117E2AA401A40A00300A128A15B42542
:100460000A128A1183120313A40101300A128A1599
:10047000B4250A128A1183120313A40102300A124E
:100480008A15B4250800A401A40A00300A128A15AE
:10049000B4250A128A11023083120313AC002C080F
:1004A000A40001300A128A15B4250A128A11831297
:1004B0000313A40102300A128A15B4250800A4010E
:1004C000A40A00300A128A15B4250A128A110230D1
:1004D00083120313AC002C08A40001300A128A1501
:1004E000B4250A128A11033083120313AC002C08BE
:1004F000A40002300A128A15B425080083120313DF
:100500002D08003A03192A2A013A0319432A033A0B
:1005100003195F2A8B2A080083120313AB007F3074
:10052000AA002A08A400A50103300A128A11012496
:100530000A128A11073083120313AA002A08A400A2
:10054000A50103300A128A113D200A128A11F32AEA
:100550000630AA002A08A400A50101300A128A1157
:100560003D200A128A11063083120313AA002A08BA
:10057000A400A50101300A128A117D210A128A11F4
:10058000002B0530AA002A08A400A50101300A1298
:100590008A113D200A128A11053083120313AA0022
:1005A0002A08A400A50101300A128A117D210A122D
:1005B0008A11002B0430AA002A08A400A5010130EA
:1005C0000A128A113D200A128A1104308312031381
:1005D000AA002A08A400A50101300A128A117D216F
:1005E0000A128A11002B831203132B08003A0319F5
:1005F000A82A013A0319C12A033A0319DA2A002B5F
:10060000831203132908AA002A08A4002B080A123F
:100610008A15B425080083120313A800772B013034
:10062000A500240A152B0310A50DFF3E031D132B57
:1006300025080505A600240A1F2B0310A60CFF3E63
:10064000031D1D2B722B0130A500240A292B03103A
:10065000A50DFF3E031D272B25080605A600240A2D
:10066000332B0310A60CFF3E031D312B722B0130E0
:10067000A500240A3D2B0310A50DFF3E031D3B2BB7
:1006800025080705A600240A472B0310A60CFF3EE9
:10069000031D452B722B0130A500240A512B03109A
:1006A000A50DFF3E031D4F2B25080805A600240AB3
:1006B0005B2B0310A60CFF3E031D592B722B013040
:1006C000A500240A652B0310A50DFF3E031D632B17
:1006D00025080905A600240A6F2B0310A60CFF3E6F
:1006E000031D6D2B2608A7002708A900882B2808C2
:1006F000003A03190F2B013A0319232B033A03196C
:10070000372B013A03194B2B073A03195F2B882B20
:1007100029080800831203134603031D0800C601BD
:10072000AA01AA0A02300A128A151B270A128A1184
:100730000A3083120313B3003308C5070A30B3002D
:100740003308C4070A30B3003308C3070A30B300C4
:100750003308C2070A30B3003308C1072630AB00A4
:100760000230AC000A128A156D260A128A110A128A
:100770008A115B250A128A1114308312031343066F
:10078000031DC82BC3010A128A11E9200A128A111B
:100790001430831203134406031DD42BC4010A1220
:1007A0008A110B220A128A110A128A153D260A1290
:1007B0008A110A128A1108250A128A112830831216
:1007C00003134206031DEA2BC2010A128A11DE2717
:1007D0000A128A111430831203134106031DF62BEB
:1007E000C1010A128A11AC250A128A11143083122F
:1007F00003134506031D0800C5010A128A15C0250A
:10080000080083120313A7004B2C24082505A6001B
:100810002409831603130505831203132604831684
:1008200003138500080024082505A6002409831663
:10083000031306058312031326048316031386008D
:10084000080024082505A6002409831603130705BC
:100850008312031326048316031387000800240859
:100860002505A60024098316031308058312031324
:100870002604831603138800080024082505A60013
:100880002409831603130905831203132604831610
:100890000313890008002708003A0319052C013AC0
:1008A0000319132C033A0319212C013A03192F2C95
:1008B000073A03193D2C5C2C080083120313A9018D
:1008C00000300A128A15DE260A128A1183120313D7
:1008D000A90100300A128A118C220A128A1183128D
:1008E0000313A90101300A128A118C220A128A11FB
:1008F00083120313A90102300A128A118C220A12F0
:100900008A110A128A1103200A128A118C300A12E3
:100910008A1588260A128A1100300A128A159F2722
:100920000A128A1101300A128A159F270A128A11A7
:1009300002300A128A159F270A128A110A128A1196
:10094000FF270A128A110A128A1591250A128A11A2
:100950000A128A15CE270A128A110A128A118A23CC
:100960000A128A11AD2C033083120313AA002A083D
:10097000A40001300A128A110B230A128A11831271
:100980000313AB002B08AC00F52C2C08031D032D22
:100990003908031D032DBC01BC0A032D2C08031DBF
:1009A000032D0230AA002A08BC00032D2C03031DCE
:1009B000E42C3903031DE42C0330AA002A08BC00F0
:1009C0001430C7000030C800470A0319480A031949
:1009D000032D1430C7070318C80A0030C807032DB9
:1009E0002C03031D032DBC01032D3C08003A031901
:1009F000C52C013A0319CE2C033A0319D62C013A1F
:100A00000319F02C032D2C08AA002A08B9000800AD
:100A1000831203134B08F63EA400FF300318003086
:100A2000A5003730A6000030A7000A128A157C27DF
:100A30000A128A11831203132508B2002408B10098
:100A40003208AE003108AD000A128A15CE250A120E
:100A50008A1183120313A401A501A50A02300A1208
:100A60008A117D210A128A11643083120313AD00AA
:100A70000030AE000A128A15CE250A128A1183129E
:100A80000313A401A50102300A128A117D210A1262
:100A90008A11603083120313AF002230B000310896
:100AA0002F02AD003208031C320A3002AE000A12D7
:100AB0008A15CE250800831203133E08343E8400B5
:100AC00083130008AD002D08AF00A90100300A1201
:100AD0008A1173270A128A1183120313A9010130A4
:100AE0000A128A1173270A128A1183120313A901A9
:100AF00002300A128A1173270A128A117F30831278
:100B00000313AD002D08A4002F08013E84000A1233
:100B10008A1500200A128A11AE002E08A5000330A3
:100B20000A128A11FD260A128A1183120313A901DF
:100B3000A90A3E080A128A1173270A128A11023082
:100B4000831203133E020318AA2D0130AD002D08B5
:100B5000BE070800BE010800831203134003031DF3
:100B600008004A087D060319B72DC00108007D085A
:100B7000FB3EA400FF3003180030A5002508803A92
:100B8000FF0080307F02031DC72D0A302402031CA2
:100B900008007D08053E83120313A40000300318EB
:100BA0000130A5002508803AFF0080307F02031D38
:100BB000DB2DAB30240203180800831203133F0817
:100BC0007D020318E62D0A30BF02EE2D7D083F029C
:100BD0000318EE2D0A30A4002408BF073F08A40024
:100BE0002408CB00080083120313AE002E2E2B081E
:100BF000A5002A08A400D030A6000730A7000A12DA
:100C00008A157C27831203132408AC002508AD0045
:100C10002D08AC00AD012C08AF002D08B0002F0945
:100C2000810008002B08A5002A08A400FA30A600BD
:100C30000030A7000A128A157C27831203132508A7
:100C4000B0002408AF003008AD002F08AC00AC099C
:100C5000AD092D088F002F098E0008002E08003ADC
:100C60000319F72D013A0319122E362E080002300F
:100C700083120313AA002A08A40001300A128A1161
:100C80000B230A128A1183120313AB002B08AC004A
:100C9000672E2C08031D752E3808031D752EBB0109
:100CA000BB0A752E2C08031D752E02305E2E2C03F8
:100CB000031D752E3803031D752E0330AA002A0864
:100CC000BB00752E2C03031D752EBB01752E3B0832
:100CD000003A0319492E013A0319522E033A031917
:100CE000572E013A0319622E752E2C08AA002A08E5
:100CF000B8000800FA00B32E7708F1007608F0007B
:100D0000D030F2000730F3000A128A153A27700833
:100D1000F8007108F9007908F800F9017808FB007B
:100D20007908FC007B09831203138100080077080F
:100D3000F1007608F000FA30F2000030F3000A12F9
:100D40008A153A277108FC007008FB007C08F9003E
:100D50007B08F800F809F9097908831203138F005A
:100D60007B098E0008007A08003A03197C2E013AAC
:100D70000319972EBB2E080083120313A401A40AA3
:100D800001300A128A110B230A128A1183120313EB
:100D9000AA002A08AB00EA2E2B08031DF82E3708FC
:100DA000031DF82EBA01BA0AF82E2B08031DF82EDF
:100DB0000230E12E2B03031DF82E3703031DF82EFE
:100DC0000330AA002A08BA00F82E2B03031DF82EC0
:100DD000BA01F82E3A08003A0319CC2E013A031949
:100DE000D52E033A0319DA2E013A0319E52EF82E0F
:100DF0002B08AA002A08B700080083120313A700D3
:100E0000292F24082505A6002409050526048500A8
:100E1000080024082505A6002409060526048600E6
:100E2000080024082505A6002409070526048700D4
:100E3000080024082505A6002409080526048800C2
:100E4000080024082505A6002409090526048900B0
:100E500008002708003A0319012F013A0319092F46
:100E6000033A0319112F013A0319192F073A0319ED
:100E7000212F3A2F080083120313A8006A2F250898
:100E8000A7002408A60007300310A70CA60CFF3EFD
:100E9000031D442F2608A9002708AA00290981005C
:100EA00008002508A7002408A6000310A70CA60C1C
:100EB0000310A70CA60C2608A9002708AA002A08D8
:100EC000A7002908A600A609A70927088F00290955
:100ED0008E0008002808003A03193F2F013A031931
:100EE000512F722F080083120313AC009E2F06307F
:100EF000AA002A08A4002908AB002B08A50001308D
:100F00000A128A117D2108000530AA002A08A400CF
:100F10002908AB002B08A50001300A128A117D2197
:100F200008000430AA002A08A4002908AB002B08F6
:100F3000A50001300A128A117D2108002C08003A10
:100F40000319772F013A0319842F033A0319912FBC
:100F5000A92F0800831203132A082B040319D92F81
:100F6000AF01AF0AAB1BC02F01300310AA0DAB0DB0
:100F7000FF3E031DB52F0130AE002E08AF07B22F84
:100F80002B082D02031DC62F2A082C02031CCE2F6E
:100F90002A08AC022B08031CAD03AD02013003107C
:100FA000AB0CAA0CFF3E031DCF2F0130AF02031D77
:100FB000C02F2D08AB002C08AA00080083120313D1
:100FC0004008031D08004A087D06031DEF2FC001DD
:100FD000C00A4A08053EA4002408BF0008004A08C9
:100FE0007D020318F62F0130CA02FA2F0130A40047
:100FF0002408CA074A08A4002408CB0008000800F7
:1010000008308A000408840A820700340034083457
:0410100048344934E3
:101B1200831203133D0808008312031349080800C7
:101B220001300A128A15A426080014340034013444
:101B3200AA34AA3483120313A5002508A40024089A
:101B4200FD00080064008001840A040603190034C1
:101B52000406A42D83120313A40024083A3E840031
:101B620083130008080083120313A6002408A500AB
:101B72002608343E840025088313800008000A12D8
:101B82008A11BC260A128A150A128A1137260A12EB
:101B92008A150A128A11B3240800831203132E082D
:101BA200AC002D08AB000A128A156D260A128A159E
:101BB2000A128A153D260800F000E52D0B110800D7
:101BC200831203130C1008007008003A0319DF2D6A
:101BD200013A0319E12DED2D080083120313A4002D
:101BE200F62D0B1108000C1008002408003A031906
:101BF200F22D013A0319F42DFE2D0800831203136E
:101C0200A900082E4808A8004708A7000D2E290899
:101C1200023A0319032E0D2E2808A5002708A40056
:101C2200080083120313AB00202EA4012908AA0086
:101C32002A08A50001300A128A117D2108002B080A
:101C4200003A0319162E252E080083120313A5004D
:101C5200342E241C302E8312031310140800831216
:101C62000313101008002508003A03193C2E013A0C
:101C720003192A2E3C2E080001300A128A15542616
:101C82000A128A15003A03193D2E01300A128A15EA
:101C9200EE250A128A1583120313A40101300A12D7
:101CA2008A152626080083120313A400A501632EB9
:101CB20000300B190130A5006B2E00300C180130DA
:101CC200A5006B2E2408003A0319592E013A031974
:101CD2005E2E6B2E25080800831203132C08A50024
:101CE2002B08A40001300A128A113B270A128A1516
:101CF20001300A128A15EE250A128A15831203137D
:101D0200A401A40A01300A128A15262608008312A9
:101D12000313A900A401A50102300A128A113D2071
:101D22000A128A1583120313A401A50102300A12B2
:101D32008A117D210A128A158312031329080A12B5
:101D42008A159B25080083120313A600B22E831660
:101D520003130114811401158111BA2E1016901665
:101D6200BA2E2608003A0319A82E013A0319AF2EFB
:101D7200BA2E8312A40126080A128A155B270800CC
:101D820083120313A500D52E241CC92E8B1608001E
:101D92008B120800241CD12E831603130C14080086
:101DA200831603130C1008002508003A0319C52EE8
:101DB200013A0319CB2EDD2E080083120313AB0068
:101DC200F62EA401A50101300A128A113D200A1241
:101DD2008A1583120313A4012908AA002A08A50060
:101DE20001300A128A117D2108002B08003A0319DA
:101DF200E22EFB2E080000300A128A15DD250A1297
:101E02008A150A30F6000030F70000300A128A11F3
:101E12007A260A128A15013083120313A0002008C1
:101E2200C60023088A0022088400210E8300FE0EC9
:101E32007E0E090083120313AE002A08AB002B08A2
:101E4200A4002E080A128A110B230A128A15831281
:101E52000313AC002C08AD002A08AB002B08A40029
:101E62002D09AC002C08A5002E080A128A117D212A
:101E72000800F401F501701C442F7208F4070318DE
:101E8200F50A7308F50701300310F20DF30DFF3E5A
:101E9200031D452F01300310F10CF00CFF3E031D12
:101EA2004C2F70087104031D3C2F7508F100740853
:101EB200F000080083120313A500732F241C652F62
:101EC2008316031381160800831603138112080078
:101ED200241C6F2F83120313901408008312031320
:101EE200901008002508003A03195F2F013A0319E0
:101EF200692F7B2F080083120313A801A901241C58
:101F0200882F2608A8070318A90A2708A90701305D
:101F12000310A60DA70DFF3E031D892F01300310EC
:101F2200A50CA40CFF3E031D902F24082504031DBD
:101F3200802F2908A5002808A40008008312031393
:101F4200AA00C22FA401A40AA501A50A01300A12FF
:101F52008A113D2008000230A9002908A400A50129
:101F6200A50A01300A128A113D2008000330A90097
:101F72002908A400A501A50A01300A128A113D20F0
:101F820008002A08003A0319A32F013A0319AC2FBB
:101F9200033A0319B72FCD2F080000300A128A1511
:101FA200A4260A128A150A3083120313AA000030EB
:101FB200AB0000300A128A11F3250A128A15831225
:101FC2000313A401A40A00300A128A15C1260A12B8
:101FD2008A150B178B1783120313A401A40A00306E
:101FE2000A128A1526260A128A1583120313A401DD
:0E1FF200A40AA50102300A128A113D2008003F
:02400E00F23F7F
:00000001FF
